:020000040800F2
:10000000284D0020A10100084D2E0008C114000851
:100010002D1D0008AD0600082D4D00080000000051
:10002000000000000000000000000000D1340008C3
:10003000CD0C0008000000006930000821360008DF
:10004000BB010008BB010008BB010008BB010008A0
:10005000BB010008BB010008BB010008BB01000890
:10006000BB010008BB010008BB010008BB01000880
:10007000BB010008BB01000891070008B907000890
:10008000BB010008E1070008BB010008BB01000834
:10009000BB010008BB010008BB010008BB01000850
:1000A000BB010008BB010008BB010008BB01000840
:1000B0009136000831370008BB010008BB01000879
:1000C000BB010008BB010008BB010008BB01000820
:1000D000BB01000885490008A1490008BD49000886
:1000E000BB010008BB010008BB010008BB01000800
:1000F000BB010008BB010008BB010008150800088F
:10010000BB010008BB010008BB010008BB010008DF
:10011000A1380008BD380008BB010008BB01000879
:10012000BB010008BB010008BB010008BB010008BF
:10013000BB010008BB010008BB010008BB010008AF
:10014000BB010008BB010008BB010008BB0100089F
:10015000BB0100083D08000865080008D9490008EF
:10016000BB010008BB010008BB010008BB0100087F
:10017000BB010008BB010008BB0100080000000033
:10018000BB010008BB010008DFF810D000F07CFACA
:1001900000480047F5520008AFF30080284D0020CA
:1001A0000648804706480047FEE7FEE7FEE7FEE711
:1001B000FEE7FEE7FEE7FEE7FEE7FEE7293600087A
:1001C0008901000840EA01039B0703D009E008C940
:1001D000121F08C0042AFAD203E011F8013B00F80C
:1001E000013B521EF9D27047D2B201E000F8012B58
:1001F000491EFBD270470022F6E710B513460A46A7
:1002000004461946FFF7F0FF204610BD421C10F8C7
:10021000011B0029FBD1801A70472DE9FE4F804653
:1002200081EA0300C00F0C46009021F0004123F04A
:100230000045B8EB0200A94105D240462146904650
:100240001C460B46024623F00040104347D0270DC2
:10025000C7F30A00C3F30A510290401A01904028E4
:100260006BDAC3F3130040F4801B0098924620B170
:100270000023D2EB030A63EB0B0B01985946C0F144
:100280004002504600F03AF906460D46504659469F
:10029000019A00F052F910EB08006141002487EA4E
:1002A000115284EAE7731A4340D0009A62B3019A6C
:1002B000012A4FEA075215DC001B61EB02014FF0E7
:1002C000004202EA0752CDE90042001C41F58011CC
:1002D00032462B4600F089F903B0BDE8F08F404666
:1002E0002146F9E7001B61EB0201001C41F5801378
:1002F00000185B412018A2F5001747EB030140EA04
:10030000D570B6196D4111E06D084FEA360645EA21
:10031000C0754FEA0752001B61EB0201001C41F55A
:10032000801149084FEA30000019514132462B46EE
:1003300003B0BDE8F04F00F049B900980122400039
:100340000023D0EB020263EBE073009821464FEAF2
:10035000E074B8EB000061EB0401E9E783F00043CF
:100360005BE781F0004158E72DE9FE4F81EA030485
:1003700004F0004421F0004100944FF0000B23F002
:10038000004350EA01045ED052EA03045BD0C3F399
:100390000A54C1F30A552C44A4F2F3340194A0FB8F
:1003A0000254C1F3130141F48011C3F3130343F466
:1003B000801301FB024400FB034E840A970A44EABF
:1003C000815447EA8357A4FB076802958D0A05FB11
:1003D00007854FEA932C04FB0C542705029D4FEA36
:1003E000065847EA1637B5EB08056EEB070C870E83
:1003F000920E47EA811742EA8312A7FB0201B6EB8D
:100400000B0164EB00042B0D43EA0C335E1844EB44
:100410001C50DA465146E7FB0201C5F313044FEACC
:100420000B3343EA14534FEA0432019C43EA0603B8
:10043000A4F10C040294009CCDE900B400F0D5F8BE
:1004400003B0BDE8F08F00200146F9E70EB540F299
:10045000334102910021CDE900110A460B4600F01C
:10046000C4F803B000BDC1F30A5210B5C1F31301C3
:1004700040F2FF3341F480119A4201DA002010BDAE
:1004800040F233439A42A2F2334203DC524200F07C
:1004900044F810BD904010BD01F0004330B421F08D
:1004A000004150EA010206D00A0DA2F56072C1F3C4
:1004B0001301002A02DC30BC00207047440F44EADC
:1004C000C104C100E01830BC00EBC25000F047B8D6
:1004D00030B50B46014600202022012409E021FA14
:1004E00002F59D4205D303FA02F5491B04FA02F511
:1004F0002844151EA2F10102F1DC30BD202A04DBE4
:10050000203A00FA02F1002070479140C2F1200326
:1005100020FA03F3194390407047202A04DB203A65
:1005200021FA02F00021704721FA02F3D040C2F113
:1005300020029140084319467047202A06DBCB175A
:10054000203A41FA02F043EAE07306E041FA02F38E
:10055000D040C2F12002914008431946704700295B
:10056000A8BF7047401C490008BF20F00100704739
:1005700010B4B0FA80FC00FA0CF050EA010404BF99
:1005800010BC704749B1CCF1200421FA04F411FAEF
:100590000CF118BF012121430843A3EB0C01CB1D33
:1005A0004FEA00614FEA102042BF002010BC7047A4
:1005B00000EBC35010440029A4BF10BC7047401C7E
:1005C000490008BF20F0010010BC704710B5141E90
:1005D00073F1000408DA401C41F1000192185B41FC
:1005E0001A4301D120F0010010BD2DE9F04D9246D3
:1005F0009B4611B1B1FA81F202E0B0FA80F22032EA
:100600009046FFF77BFF04460F4640EA0A0041EAA6
:100610000B0153465A46084313D0114653EA0100D2
:1006200019D0C8F140025046FFF777FF05460E4645
:10063000504659464246FFF761FF084305D0012066
:1006400004E020463946BDE8F08D0020054346EA27
:10065000E0762C4337430A986305E40AA0EB0800D0
:100660000022FD0A44EA47540A3002D50020014620
:10067000E9E7010510196941DDE9084500196941FB
:10068000BDE8F04DA2E70000064C074D06E0E0682B
:1006900040F0010394E8070098471034AC42F6D3C9
:1006A000FFF776FD04A1000824A1000800BFFEE7C3
:1006B00030B10A49097821F00401084A117006E0B6
:1006C0000649097821F00401091D044A1170034903
:1006D00009884FF0C042118070470000540000208C
:1006E00070B52DED0A8B04464FF47A70B4FBF0F52B
:1006F0002846FFF7ABFE41EC1C0B9FED1F0B53ECA4
:10070000102BFFF731FE41EC1A0B2046FFF79EFE3F
:1007100041EC1B0B53EC1A2BFFF720FE41EC190B9D
:100720009FED170B53EC102BFFF71EFE41EC180B3F
:100730009FED150B53EC102B51EC180BFFF70EFE31
:1007400041EC190BFFF78FFE4FF0C04148809FED41
:100750000E0B53EC102B51EC180BFFF7FFFD41EC87
:10076000190BFFF780FE000C4FF0C0418880472036
:10077000C880BDEC0A8B70BDFCA9F1D24D6260BF90
:1007800092CB7F48BF7D2D40000000000000E03F7D
:1007900010B54FF0C051074800F054F940B14FF088
:1007A000C051044800F078F80021024800F08EF8AB
:1007B00010BD00005860024010B50749074800F01E
:1007C00041F938B10449054800F066F800210348B2
:1007D00000F07CF810BD0000200000207060024096
:1007E00010B50949094800F02DF958B106490748E4
:1007F00000F052F84021064804F0FCF800210348BC
:1008000000F064F810BD000000002020A06002404D
:100810000044004010B54FF02051074800F012F995
:1008200040B14FF02051044800F036F80021024852
:1008300000F04CF810BD0000B860024010B5074948
:10084000074800F0FFF838B10449054800F024F8E3
:100850000021034800F03AF810BD000000002020FD
:10086000A064024010B54FF02051094800F0EAF8AA
:1008700060B14FF02051064800F00EF840210548C5
:1008800004F0B8F80021024800F020F810BD000084
:10089000B8640240001001400246094B9A4201D25E
:1008A000084801E00648103801F000531BB1064B20
:1008B0000B40C36002E0044B0B40836070470000B4
:1008C00010640240006002407D0F7D0F21B102687C
:1008D00042F00102026003E0026822F001020260BD
:1008E00070470000016821F00101016000210160F2
:1008F00041608160C1600161212141614A498842B2
:1009000004D13D21484A103A91608CE046491831A3
:10091000884205D14FF47461434A103A916082E0F5
:1009200041493031884205D14FF474113E4A103AA2
:10093000916078E03C494831884205D14FF07461BC
:10094000394A103A91606EE037496031884204D1EB
:100950003649354A103AD16065E0334978318842EA
:1009600004D13349304A103AD1605CE02E499031CD
:10097000884204D12F492C4A103AD16053E02A49C9
:10098000A831884205D14FF03D51274A103AD16035
:1009900049E02949884204D13D21274A083A11609B
:1009A00041E025491831884205D14FF47461224A4B
:1009B000083A116037E020493031884205D14FF4C0
:1009C00074111D4A083A11602DE01B4948318842D4
:1009D00005D14FF07461184A083A116023E01649B6
:1009E0006031884204D11149134A121F11601AE084
:1009F00011497831884204D10D490F4A121F116004
:100A000011E00D499031884204D10A490A4A121F67
:100A1000116008E00849A831884204D14FF03D51E7
:100A2000054A121F11607047106002403D0000200F
:100A3000400F002000003D2010640240014648683D
:100A400080B2704730B503460A46002000240B4DA3
:100A5000AB4201D20A4901E00849103902F00055C1
:100A60000DB14C6800E00C68064D2C4004EA02050C
:100A70000DB1012000E0002030BD000010640240F4
:100A8000006002407D0F7D0F10B501F080034BB177
:100A900022B1436943F08003436103E0436923F0DB
:100AA0008003436180290BD02AB1036801F01E0442
:100AB0002343036004E0036801F01E04A3430360C2
:100AC00010BD000010B500220268134B1A40CC681C
:100AD0000B6823434C6923438C692343CC6923432C
:100AE0000C6A23434C6A23438C6A23434C6B234395
:100AF0008C6B23431A430260426922F00702D1E95A
:100B00000B3423431A4342610B6943604B68836093
:100B10008B68C36010BD00003F801CF02DE9F041E0
:100B20000446384884421CD1374E4FF000084FF03D
:100B300081573046FFF782FF34490988081A344943
:100B40000880344802F0B6FA58B1002505E0324872
:100B5000415D304802F0DDFA6D1C2D480088854269
:100B6000F5DB2E48844203D12D4E4FF001082D4F66
:100B70002D4884421CD12A4E603E4FF002082B4F74
:100B80003046FFF75BFF2A490988081A294908807F
:100B9000294802F08FFA58B1002505E02748415D49
:100BA000254802F0B6FA6D1C224800888542F5DB24
:100BB0002348844205D11A4E483E4FF003084FF0B7
:100BC00081572048844204D1154E783E4FF00408E6
:100BD0001D4F1E48844204D10B4E183E4FF00508AD
:100BE000124F2088A08800213046FFF76FFE39465B
:100BF0003046FFF751FE01213046FFF767FEBDE8A2
:100C0000F081000000100140406402405E000020BE
:100C10006000002034150020243E002000440040E5
:100C200088600240000800200048004000080010D2
:100C300066000020680000205C150020244700208A
:100C4000004C004000500040200000100014014003
:100C50004160704770B504460E461448844200D186
:100C6000134D1448844200D1134D1448844201D1DD
:100C7000114D483D1248844201D10F4D303D11487D
:100C8000844201D10C4D18350F48844201D1084DE2
:100C9000183D00212846FFF719FE31462846FFF788
:100CA000D7FF01212846FFF711FE70BD001001405B
:100CB000B864024000440040A06002400048004088
:100CC000004C0040005000400014014070470000FC
:100CD00001B504490098086000BF02480068002878
:100CE000FBD108BD000000200149086070470000EA
:100CF0000C3C024030B10749096841F48061054A63
:100D0000116005E00349096821F48061014A11601E
:100D100070470000003C024070B504460A460026B9
:100D2000092502B909E0012A01D1160205E0022ACB
:100D300001D1160201E04FF4407600F09FF805461D
:100D4000092D28D11548006820F440701349086027
:100D500008460068304308600846006820F0F80044
:100D600008600846006844F0020108430B49086027
:100D70000846006840F48030086000F07FF80546BF
:100D80000648006820F00200044908600846006830
:100D900020F0F8000860284670BD0000103C0240BA
:100DA00009201349096801F48031B1F5803F01D170
:100DB00001201CE00E49096801F0100109B106206C
:100DC00015E00B49096801F4807109B102200EE0B9
:100DD0000749096801F0E00109B1072007E004496B
:100DE000096801F0020109B1082000E009207047FC
:100DF0000C3C02400348006840F000400149086094
:100E000070470000103C024030B502460C460925F0
:100E100000F034F80546092D19D10E48006820F479
:100E200040700C4908600846006840F40070086093
:100E30000846006840F001000860146000F01EF8E9
:100E400005460448006820F0010002490860284671
:100E500030BD0000103C02400548006800F0004032
:100E600028B1044802490C390860034808607047FB
:100E7000103C024023016745AB89EFCD08B509203E
:100E80000090FFF78DFF009002E0FFF789FF0090D0
:100E90009DF800000128F8D09DF8000008BD000072
:100EA0001CB501211A2002F04DF90121084602F07B
:100EB00059F900208DF8060001208DF80700022066
:100EC0008DF8040003208DF805004FF48040009059
:100ED0006946894800F0F4F90C220E21864800F09A
:100EE00037FA4FF4004000906946834800F0E8F973
:100EF0000C220F21804800F02BFA01200090694657
:100F00007D4800F0DDF90C2200217B4800F020FA3A
:100F1000022000906946784800F0D2F90C220121A5
:100F2000754800F015FA802000906946734800F07B
:100F3000C7F90C220721714800F00AFA4FF48070BB
:100F4000009069466D4800F0BBF90C2208216B48FF
:100F500000F0FEF94FF4007000906946674800F019
:100F6000AFF90C220921654800F0F2F94FF48060D6
:100F700000906946614800F0A3F90C220A215F48FD
:100F800000F0E6F94FF40060009069465B4800F01D
:100F900097F90C220B21594800F0DAF94FF48050F0
:100FA00000906946554800F08BF90C2211465348D1
:100FB00000F0CEF94FF40050009069464F4800F021
:100FC0007FF90C220D214D4800F0C2F94FF480400A
:100FD00000906946494800F073F90C220E214748F9
:100FE00000F0B6F94FF4004000906946434800F025
:100FF00067F90C220F21414800F0AAF94FF48070E4
:10100000009069463C4800F05BF90C2208213A4800
:1010100000F09EF94FF4007000906946364800F0E9
:101020004FF90C220921344800F092F94FF4806006
:1010300000906946304800F043F90C220A212E48FE
:1010400000F086F90820009069462B4800F038F936
:101050000C220321284800F07BF9102000906946FB
:10106000254800F02DF90C220421234800F070F9E6
:10107000202000906946204800F022F90C2205212A
:101080001D4800F065F94020009069461A4800F0BC
:1010900017F90C220621184800F05AF98020009018
:1010A0006946154800F00CF90C220721124800F09F
:1010B0004FF9802000906946114800F001F90C2298
:1010C00007210F4800F044F90220009069460B48C0
:1010D00000F0F6F80C220121084800F039F901204F
:1010E00000906946054800F0EBF80C220021034807
:1010F00000F02EF91CBD0000000C02400010024060
:101100000004024000B597B0FFF7CAFE0820019026
:1011100002900390C82004900020059006904FF0A4
:1011200080500790002008900220099008200A9023
:1011300010200B9000200C900E900D900F901090AE
:101140004FF480501190002012901390149001A839
:101150001590169008A800F021F80121002000F059
:1011600003F817B000BD000051B18200A2F1C042E7
:10117000126842F001038200A2F1C042136009E04C
:101180008200A2F1C0421268034B1A408300A3F10F
:10119000C0431A6070470000FEFF0F0030B5002109
:1011A000002200230468A400A4F1C0442168424C3A
:1011B0002140D0E901452C43C5682C4305692C43E7
:1011C00045692C4385692C43C5692C43056A2C432A
:1011D000456A2C43856A2C43C56A2C43056B2C4316
:1011E00021430468A400A4F1C04421608468082C51
:1011F0000BD10468A400A4F1C044246844F0400565
:101200000468A400A4F1C04425600468641CA40020
:10121000A4F1C044226802F04042446B2468456B4C
:101220006D6844EA0514456BAD6844EA0524456BD6
:10123000AD8944EA0544456B2D8A44EA0554456B63
:101240002D7D44EA0564456BAD692C432243046857
:10125000641CA400A4F1C0442260C46AB4F5804FA9
:1012600020D10468A400A4F1C044D4F80431134C84
:101270002340846B2468856B6D6844EA0514856B94
:10128000AD6844EA0524856BAD8944EA0544856B65
:10129000AD692C4323430468A400A4F1C044C4F8FE
:1012A000043107E06FF070450468A400A4F1C04465
:1012B000C4F8045130BD00008000F7FF0000F0CFFB
:1012C000F0B50A4600210023002400BF3DE00125BF
:1012D00005FA01F3156805EA03049C4234D1056858
:1012E0004F000326BE40B543056015794E00B5405A
:1012F0000668354305601579012D02D01579022D58
:1013000016D185684F000326BE40B54385605579E8
:101310004E00B540866835438560456801268E409D
:10132000B5434560456896798E40B6B23543456011
:10133000C5684F000326BE40B543C560D5794E0051
:10134000B540C6683543C560491C1029BFD3F0BD00
:10135000F0B5002300244D07ED0E02FA05F3CE1080
:1013600000F1200555F826504E07F70E0F26BE4017
:10137000B543CF1000F1200646F82750CE1000F1FB
:10138000200555F8265045EA0304CE1000F120054B
:1013900045F82640F0BD4183704701837047000047
:1013A000014600202C4A914203D2B1F1006F00D3D4
:1013B00050E02A4A914204D2274A914201D30820A0
:1013C00048E0274A914204D2244A914201D3102096
:1013D00040E0244A914204D2214A914201D318208C
:1013E00038E0214A914204D21E4A914201D3202082
:1013F00030E01E4A914204D21B4A914201D3282078
:1014000028E01B4A914204D2184A914201D330206D
:1014100020E0184A914204D2154A914201D3382063
:1014200018E0154A914204D2124A914201D3402059
:1014300010E0124A914204D20F4A914201D348204F
:1014400008E00F4A914204D20C4A914201D3502045
:1014500000E05820704700000040000800800008AD
:1014600000C0000800000108000002080000040895
:10147000000006080000080800000A0800000C0828
:1014800000000E0810B500200549087048700120C2
:10149000887002F093FC00200149887010BD0000A4
:1014A000900000200120024908700020C870704799
:1014B0009000002000B50346184602F065FC00BD10
:1014C00000BFFEE72DE9F04107460C4615461E46D3
:1014D0002A2000F081FB384600F062FB284600F02D
:1014E0005FFB2B2000F078FB204600F059FB3046D4
:1014F00000F056FB2C2000F06FFBBDE8F08170B5CA
:10150000064640F23F13EF2200210846FFF7DAFFBC
:1015100000240BE0002504E0304600F041FB681C8D
:1015200085B2B5F5A07FF7DB601C84B2F02CF1DB4F
:1015300070BD70B504460D4616462B462246294618
:101540002046FFF7BFFF304600F02AFB70BD0000C9
:1015500010B500F015F910218848FFF71CFF0A208C
:1015600003F07CFD10218548FFF717FF0A2003F0E8
:1015700075FD20218148FFF710FF0A2003F06EFD62
:10158000CF2000F029FB002000F01AFBC12000F062
:1015900017FB302000F014FBED2000F01DFB642051
:1015A00000F00EFB032000F00BFB122000F008FB04
:1015B000812000F005FBE82000F00EFB852000F004
:1015C000FFFA002000F0FCFA792000F0F9FACB20B5
:1015D00000F002FB392000F0F3FA2C2000F0F0FAC2
:1015E000002000F0EDFA342000F0EAFA022000F0CA
:1015F000E7FAF72000F0F0FA202000F0E1FAEA2004
:1016000000F0EAFA002000F0DBFA002000F0D8FA3F
:10161000C02000F0E1FA1D2000F0D2FAC12000F055
:10162000DBFA122000F0CCFAC52000F0D5FA332006
:1016300000F0C6FA3F2000F0C3FAC72000F0CCFA51
:10164000922000F0BDFA3A2000F0C6FA552000F0D2
:10165000B7FA362000F0C0FA082000F0B1FAB12045
:1016600000F0BAFA002000F0ABFA122000F0A8FA5D
:10167000B62000F0B1FA0A2000F0A2FAA22000F091
:101680009FFA442000F0A8FA022000F099FAF22014
:1016900000F0A2FA002000F093FA262000F09CFA55
:1016A000012000F08DFAE02000F096FA0F2000F003
:1016B00087FA222000F084FA1C2000F081FA1B2017
:1016C00000F07EFA082000F07BFA0F2000F078FA94
:1016D000482000F075FAB82000F072FA342000F0CB
:1016E0006FFA052000F06CFA0C2000F069FA09206E
:1016F00000F066FA0F2000F063FA072000F060FAAD
:10170000002000F05DFAE12000F066FA002000F011
:1017100057FA232000F054FA242000F051FA072051
:1017200000F04EFA102000F04BFA072000F048FAC3
:10173000382000F045FA472000F042FA4B2000F034
:101740003FFA0A2000F03CFA132000F039FA062094
:1017500000F036FA302000F033FA382000F030FA8A
:101760000F2000F02DFA112000F036FA052003F0CA
:1017700075FC292000F030FA10BD0000000802407E
:101780001CB50121052001F0DDFCF02000900120B6
:101790008DF8040000208DF8060003208DF8050068
:1017A00001208DF8070069460948FFF789FD3020C0
:1017B000009001208DF8040000208DF80600032021
:1017C0008DF8050069460348FFF77AFD1CBD00004F
:1017D00000000240000802402DE9FE4305460E4687
:1017E00014461F46DDF8288046E020787F2825DD56
:1017F00020788DF8080060788DF8090000208DF8B9
:101800000A00C82D03DD002506F1200086B2B6F5DA
:101810008C7F02DD00200546064602A801F05AFE34
:10182000814620234A4631462846CDE9007800F01B
:10183000FBF805F1200085B2A41C1DE0D82D03DDC6
:10184000002506F1200086B2B6F58C7F02DD00206F
:101850000546064620788DF8080000208DF809001E
:101860003B4602AA31462846CDF8008000F046F8F3
:1018700005F1100085B2641C20780028B5D1BDE8C0
:10188000FE8300002DE9F05F044688461546994620
:1018900004F1080084B2184F08F11F0083B204F16C
:1018A0000F0082B241462046FFF70CFE4FF0400B7E
:1018B000A5F12000C5B215FB0B774FF0000A16E02A
:1018C00000260DE038780121B140084018B14846A3
:1018D00000F066F902E00A9800F062F9701CC6B2E6
:1018E000082EEFDB7F1C0AF1010000F0FF0ADA4549
:1018F000E6DBBDE8F09F0000C17C00082DE9F8435D
:1019000005460E4614461F46DDF8208017E0E02D00
:1019100003DD002506F1200086B2B6F5907F02DDDA
:10192000002005460646CDF8008022783B46314629
:101930002846FFF7A7FF05F1100085B2641C207848
:101940000028E4D1BDE8F8832DE9F84F05460F469D
:1019500016469A46DDF828B00095E02D02DCB7F572
:10196000987F01DDBDE8F88FA6F12000C6B207F12F
:101970000F0083B2E81D82B239462846FFF7A2FD68
:10198000BAF1000F27D1002422E004EB061024490D
:1019900011F800904FF0000812E009F0010018B1B2
:1019A000584600F0FDF803E01E48008800F0F8F803
:1019B0004FEA6909681C85B208F1010000F0FF08D0
:1019C000B8F1080FE9DB009D781C87B2601CC4B237
:1019D000102CDADB21E000241DE004EB0610104996
:1019E00011F800904FF0000810E009F0010038B144
:1019F0003A1991B205EB080290B25A46FFF799FDE9
:101A00004FEA690908F1010000F0FF08B8F1080F7A
:101A1000EBDB601CC4B2102CDFDB00BFA2E70000D0
:101A2000F1750008300000202DE9F05F06468A4677
:101A300093461C4606F1080086B2102C00D11B4DBF
:101A4000202C00D11A4D0AEB0400401E83B230193D
:101A5000401E82B251463046FFF734FD04FB04F0CD
:101A6000C11700EB5171C1F3C7090BFB09554FF0CA
:101A7000000816E000270DE028780121B940084051
:101A800018B10A9800F08CF802E00B9800F088F882
:101A9000781CC7B2082FEFDB6D1C08F1010000F0C5
:101AA000FF08C845E6DBBDE8F09F0000E17B0008C9
:101AB000715800082DE9F0472DED028B82B00646E3
:101AC0008846B0EE408A14461F460025A946AA461D
:101AD0009FED1F0A28EE000ABCEEC00A10EE100AA5
:101AE0001FFA80FA00BF2CE0601B401EC1B20A2022
:101AF00003F078FEBAFBF0F00A21B0FBF1F201FB33
:101B00001209A01EA8420ED1A11E082202FB0161EB
:101B100088B200232E2241460097FFF715FF681C6C
:101B2000C5B2601CC4B209F13001CAB2082101FB80
:101B3000056188B2002341460097FFF705FF681C46
:101B4000C5B2A542D0DB02B0BDEC028BBDE8F08788
:101B50000000C842F8B505460E4614461F461AE076
:101B6000E02D03DD002506F1100086B2B6F5987F62
:101B700006DD0020054606464FF47840FFF7BFFC1F
:101B800000972278002331462846FFF7DDFE05F155
:101B9000080085B2641C20780028E1D1F8BD00005F
:101BA00010B5044640210548FFF7F7FB201200F06E
:101BB0001FF8E0B200F01CF810BD00000000024069
:101BC00010B5044640210348FFF7E7FB204600F02C
:101BD0000FF810BD0000024010B504464021034834
:101BE000FFF7D9FB204600F003F810BD00000240CB
:101BF00070B50446002517E020210D48FFF7CBFB08
:101C000004F0800020B180210948FFF7C6FB03E003
:101C100080210748FFF7BFFB20210548FFF7BDFBE8
:101C20006006040E681CC5B2082DE5DB70BD00001F
:101C30000000024010B52DED048B82B00020019011
:101C400000249FED130BB0EE408AF0EE608A022272
:101C5000002101A803F044FA9DF805009DF8041046
:101C600040EA012464112046FEF7F0FB41EC190B19
:101C70009FED090B53EC102BFEF776FB41EC180B94
:101C8000B0EE480AF0EE680A02B0BDEC048B10BD5D
:101C90000000000000000000000000000000C03F45
:101CA00010B50446ACB11C48007820F001001A4978
:101CB0000870EA20194908700120487002208870D5
:101CC0000320C870ED20087105211548FEF7C2FFFA
:101CD0001BE01448007818B913480068FEF700FDAF
:101CE0000D48007820F00100401C0B490870EA20E4
:101CF0000A4908700120487088700220C870ED20E1
:101D0000087105210648FEF7A5FF034800884FF03B
:101D1000C041088010BD000054000020244800206D
:101D200000480040520000201C00002000BFFEE7D9
:101D300008B590480078072877D2DFE800F0040B58
:101D40004DE177F8B900FFF703FC02F0ABFC00F0BF
:101D500001FF0DE187488078FF280CD101208549DB
:101D600088701F204FF6FF7383A2B02100900020DF
:101D7000FFF732FD2DE07F48407860B91F204FF615
:101D8000FF7381A2B02100902020FFF725FDFF20E6
:101D9000784988701DE077484078062812D10020E5
:101DA00074494870012088707A4800687A49086050
:101DB0001F204FF6FF7379A2B02100902020FFF77B
:101DC0000BFD06E001206B49887008464078401CF6
:101DD000487000F0BFFECBE066488078202816D11E
:101DE00064484078634988700121084600F064FD2A
:101DF0000221012000F060FD0321012000F05CFDC4
:101E00000421012000F058FD00F0A4FE0CE0594828
:101E1000007858494870084600788870002008709B
:101E200002F040FC00F096FEA2E0A0E0514880786D
:101E3000FF280CD101204F4988701F204FF6FF73F7
:101E40004DA2B02100900020FFF7C6FC2DE04948CC
:101E5000407860B91F204FF6FF734BA2B02100906D
:101E60002020FFF7B9FCFF20424988701DE041485F
:101E70004078032812D100203E4948700120887024
:101E800049480088494908801F204FF6FF7343A244
:101E9000B02100902020FFF79FFC06E0012035498B
:101EA000887008464078401C487000F053FE5FE0A0
:101EB00030488078FF2812D11F204FF6FF732EA2E2
:101EC000B02100900020FFF787FCFFF741FB02F0F4
:101ED0000FFD00F03FFE0120264988700FE01F2013
:101EE0004FF6FF7328A2B02100902020FFF774FC6A
:101EF00000202F498871C871FF201E49887037E083
:101F00001C488078FF2813D11F204FF6FF731AA2B8
:101F1000B02100900020FFF75FFCFFF719FB02F0F3
:101F200029FC00F017FE01201249887010E010E033
:101F30001F204FF6FF7314A2B02100902020FFF75E
:101F40004BFC00201A498871C871FF20094988702C
:101F50000EE0084800780749487008460078887005
:101F60000020087002F09EFB00F0F4FD00E000BFCE
:101F700000BF08BD56000020202020202020202067
:101F80002020202020200000C8B7C8CFB7B5BBD87C
:101F90003F2000001C00002020000020D0DEB8C43C
:101FA000D2D1C8A1CFFB00002600002024000020D1
:101FB0000800002010B561480078072872D2DFE8D9
:101FC00000F00426728788B7B8005C484078401E4D
:101FD0005A49487008464078052802D104204870C4
:101FE0000EE056484078032803D102205349487038
:101FF00006E052484078002802DC06204F4948702D
:1020000000F0A8FD4D4840784C49887093E04B485B
:102010004078072838D2DFE800F037040A10161D90
:102020002B0047480068401E454908602DE04448A1
:1020300000680A384249086027E04148006864386F
:102040003F49086021E03E480068A0F57A703C49AD
:1020500008601AE03A48006844F63821884206D9F8
:1020600037480068A0F51C501038354908600CE06E
:10207000334800683349884205D9314800683249FD
:10208000401A2F49086000E000BF00BF2C480068DC
:1020900042F22831884202D208462949086000F0FD
:1020A00059FD48E046E0254880780A280FDA2348A1
:1020B0004078401E214948700846407808B90420FD
:1020C000487000F047FD1D4840781C49887032E098
:1020D00031E01A484078012804D0022808D00328AB
:1020E0001AD10FE019480088401E1849088014E0F2
:1020F000164800880A2804DD144800880A38134965
:1021000008800AE011480088642804DD0F48008830
:1021100064380E49088000E000BF00BF0B4800880B
:10212000002802DA00200949088000F013FD02E0CF
:1021300001E000E000BF00BF10BD0000560000201D
:1021400020000020C8A90100A08601002400002072
:1021500038B5BF48007807287CD2DFE800F0045B80
:10216000ABB5D67BF100BB48007818B9B8484078C9
:1021700003284EDDB6484078B54908700846007817
:10218000072844D2DFE800F043041019212D350060
:102190000020AF49487001208870AF480068AF49FF
:1021A000086002F0A7FA33E00120A949487088705E
:1021B00002F0BEFA00F0CEFC2AE01E20A4494870CE
:1021C0000120887002F0D6FA22E00020A049487071
:1021D00001208870A2480088A249088002F016FBFE
:1021E00016E032209A4948700120887002F030FBD6
:1021F0000EE03C20964948700120887002F078FB80
:10220000802099490870994801F084FB00E000BFE4
:1022100000BF1AE18E488078FF280DD18C480078E5
:102220008B4948700846007888700020087002F0DA
:1022300039FA00F08FFC3CE08548407888B987483F
:1022400000688B49884206D281484078401D804909
:1022500048700BE0F8E07E484078801D7C4948706B
:1022600004E07B484078401E7949487000F072FCD9
:1022700077484078A0B979480068774908600846EF
:102280000068FEF72DFA1F204FF6FF7379A2B021E8
:1022900000902020FFF7A0FA00207949087008E09C
:1022A0001F204FF6FF7377A2B02100900020FFF7A8
:1022B00093FACAE066488078FF2804D02020644959
:1022C000887000F047FCC0E061488078FF280DD19D
:1022D0005F4800785E4948700846007888700020A2
:1022E000087002F0DFF900F035FC0DE05848807806
:1022F0000A2806DD564840785549887000F02AFCC7
:1023000002E00120524988709FE051488078FF2800
:102310000DD14F4800784E494870084600788870C3
:102320000020087002F0BEF900F014FC6AE0484892
:10233000407830B946484078C01C4549487005E0AF
:1023400061E043484078401E4149487000F002FC7B
:102350003F48407800284CD14248008840490880D6
:102360001F204FF6FF734BA2B02100902020FFF7F3
:1023700033FA41214A48417100218171C1713849C4
:10238000098801EB81014800C11700EB11610A0ABD
:1023900043490A723249098801EB81014800C1179B
:1023A00000EB11610912A0EB0121CAB23C494A724B
:1023B0000020C874012406E03948C01C015D1030BB
:1023C00002F054F9641C072CF6DB3549133135480B
:1023D00002F0BAF832480079401CC1B230480171AD
:1023E0000A2002F057FE2E4913312E4802F0ACF8B5
:1023F00008E01F204FF6FF7322A2B02100900020BA
:10240000FFF7EAF921E012488078FF280DD1104843
:1024100000780F49487008460078887000200870DE
:1024200002F040F900F096FB0DE0094880780A2898
:1024300006DD074840780649887000F08BFB02E013
:1024400001200349887000BF00BF00BF38BD0000F5
:1024500056000020050000201C0000202000002065
:102460002600002024000020043E0020001001402F
:10247000A0860100B1E0C2EBD2D1B8FCD0C200000E
:10248000520000202020202020202020202020205A
:1024900020200000CBA5BCF5D2D1B8FCD0C20000F2
:1024A000900000200048004010B5584800780728E8
:1024B0007CD2DFE800F00426657C7DA6A7005348A7
:1024C0004078401C5149487008464078032802D1A2
:1024D000042048700EE04D484078052803D10620BE
:1024E0004A49487006E049484078072802DB012045
:1024F0004649487000F02EFB4448407843498870B4
:1025000082E04248407807282DD2DFE800F02C0412
:102510000A10161D25003E480068401C3C49086012
:1025200022E03B4800680A30394908601CE038481E
:10253000006864303649086016E03548006800F5E8
:102540007A70334908600FE03148006842F2107138
:1025500008442F49086007E02D4800682D490844C9
:102560002B49086000E000BF00BF294800682A49E5
:10257000884202D908462649086000F0EBFA43E099
:10258000224880780A2810DA20484078401C1F49E9
:10259000487008464078042801DD0120487000F0AA
:1025A000D9FA1A484078194988702DE02BE02BE0C1
:1025B00016484078012804D0022808D0032812D1F8
:1025C0000BE016480088401C144908800CE01348B2
:1025D00000880A301149088006E0104800886430FD
:1025E0000E49088000E000BF00BF0C48008840F2A0
:1025F000EE21884202DD08460849088000F0AAFA68
:1026000002E001E000E000BF00BF10BD5600002066
:1026100020000020A0860100C0D40100240000207A
:10262000F8B50446002600251CB14FF6FF761F259D
:1026300002E000264FF6FF750948007838B13346AE
:1026400008A2442100200095FFF7C6F806E03346B3
:1026500008A2442100200095FFF7BEF8F8BD000055
:1026600005000020312EBEABC8B7C6B5C2CAB1E066
:10267000C2EB0000312ECDE2CDACB2BD2020202037
:1026800020200000F8B5074614480078022801D140
:10269000012400E002241FB14FF6FF761F2502E05F
:1026A00000264FF6FF750E48007858B104EBC400C1
:1026B000800000F1200133460AA200200095FFF7B8
:1026C0008BF80AE004EBC400800000F120013346DF
:1026D00008A200200095FFF77FF8F8BD5600002003
:1026E00005000020322ECEB1CBE6BBFAB1E0C2EB42
:1026F00020200000322ECDE2CDACB2BD2020202023
:1027000020000000F8B5074614480078032801D1DE
:10271000012400E003241FB14FF6FF761F2502E0DD
:1027200000264FF6FF750E48007858B104EBC40040
:10273000800000F1200133460AA200200095FFF737
:102740004BF80AE004EBC400800000F1200133469E
:1027500008A200200095FFF73FF8F8BD56000020C2
:1027600005000020332EB1E4BCE4B8F4C2EB202015
:1027700020200000332ECDE2CDACB2BD20202020A1
:1027800020200000F8B507460D480078042801D144
:10279000012400E004241FB14FF6FF751F2602E05C
:1027A00000254FF6FF7604EBC400800000F1200105
:1027B0002B4604A200200096FFF70EF8F8BD00009B
:1027C00056000020342ECAE4B3F6C4DCC1BFC9E809
:1027D000B6A80000F8B507460D480078052801D1D5
:1027E000012400E005241FB14FF6FF751F2602E00B
:1027F00000254FF6FF7604EBC400800000F12001B5
:102800002B4604A200200096FEF7E6FFF8BD00006C
:1028100056000020352EB7C2D5E6C4A3CABD20207D
:1028200020200000F8B507460D480078062801D1A1
:10283000012400E006241FB14FF6FF751F2602E0B9
:1028400000254FF6FF7604EBC400800000F1200164
:102850002B4604A200200096FEF7BEFFF8BD000044
:1028600056000020362EB3CCBFD8C4A3CABD20204A
:102870002020000010B586B00D4840780A2190FB5A
:10288000F1F201FB1200C4B24FF6FF7000211F22CB
:10289000CDE90202CDE9041003200623CDE90004AE
:1028A000044878210268202000F018FB06B010BD13
:1028B00056000020200000202DE9FF4107460C466D
:1028C00020A000680190601E00F038FDCDE90201F3
:1028D0001FB14FF6FF761F2502E000264FF6FF7569
:1028E0009DF804002044C0B28DF8040004EB84007D
:1028F000C00000F14801334601AA20200095FEF7F0
:102900006BFF0023DDE902105940584001430BD111
:1029100004EB8400C00000F1480133460AA25020B5
:102920000095FEF759FF0AE004EB8400C00000F1B7
:102930004801334602AA50200095FEF74DFFBDE83E
:10294000FF81000030292000BFD52020202020005A
:10295000F0B589B005464FA000680590681E00F0EC
:10296000EDFCCDE906010023DDE906105940584091
:1029700001437DD0012048490870484E00240BE0F7
:10298000681E4FF4007101FB0040454951F82000DA
:1029900046F82400601C84B2B4F5007FF0DB3F48A9
:1029A0008789008A07443846FDF79AFE9DF814008F
:1029B0002844C0B28DF814001F204FF6FF7305AAFB
:1029C000702100902020FEF707FF1F204FF6FF73B5
:1029D00006AA702100905020FEF7FEFE1F204FF641
:1029E000FF7330A2982100902020FEF7F5FE1F20F3
:1029F0004FF6FF732FA2C02100902020FEF7ECFEBF
:102A00001F204FF6FF732FA2E82100902020FEF731
:102A1000E3FE3048038830A20A2102A802F0F6F94A
:102A20001F204FF6FF7302AA982100907020FEF736
:102A3000D3FE2A4800882A490988431826A20A2179
:102A400002A802F0E3F91F204FF6FF7302AAC0218B
:102A500000907020FEF7C0FE2048008821490988B8
:102A600043181DA20A2102A802F0D0F91F2000E09D
:102A70000AE04FF6FF7302AAE82100907020FEF7EB
:102A8000ABFE012009B0F0BD1748407816498870A8
:102A90000020F7E730292000520000208435002074
:102AA0008415002053697A653A20202020202020B8
:102AB00000000000546D696E3A2020202020202064
:102AC00000000000546D61783A2020202020202052
:102AD000000000001000002025640000120000200B
:102AE00014000020160000205600002010B586B00B
:102AF0000D4840780A2190FBF1F201FB1200C4B2AC
:102B00004FF6FF7000211F22CDE90202CDE904102B
:102B100001200323CDE900040448028878216020C5
:102B200000F0DCF906B010BD5600002024000020A3
:102B300010B54FF6FF7303A24FF496716420FFF7B0
:102B400009F810BD566572322E313020434C3230B8
:102B5000322D420010B53848007830B101284DD0F0
:102B600002284ED0042863D15FE0334880780728DC
:102B70001DD2DFE800F01C04080C1014180001201E
:102B8000FFF74EFD14E00120FFF77CFD10E001206F
:102B9000FFF7B8FD0CE00120FFF7F4FD08E001208D
:102BA000FFF718FE04E00120FFF73CFE00E000BF45
:102BB00000BF2148407807281DD2DFE800F01C0440
:102BC000080C101418000020FFF72AFD14E0002064
:102BD000FFF758FD10E00020FFF794FD0CE0002007
:102BE000FFF7D0FD08E00020FFF7F4FD04E000202F
:102BF000FFF718FE00E000BF00BF1AE0FFF73AFE43
:102C000017E00D488078202804D10B494878FFF759
:102C10009FFE09E0084881780120FFF74DFE064835
:102C200041780020FFF748FE03E0FFF75FFF00E078
:102C300000BF00BF10BD00005600002008B51F20D7
:102C40004FF6FF7303A2102100900020FEF7C4FD91
:102C500008BD0000BCA4B9E2C4BFB1EAC4A3C4E289
:102C6000C6F700002DE9F04F8FB007460C46154619
:102C70001E46DDE91AABDDE918890121384600F06E
:102C800061FA2046FDF72EFE00950196CDF80880EA
:102C9000CDF80C90CDF810A0002005904FF4806086
:102CA00006900020079008900990CDF828B00B906E
:102CB00003200C9000200D900E9069462046FDF7F1
:102CC00001FF01212046FDF701FE0FB0BDE8F08FA6
:102CD0002DE9FC4704460F4615469846DDF8289036
:102CE00001210F2000F02EFA1F48844205D01F4812
:102CF000844202D01E48844201D1072600E0082603
:102D0000324629463846FEF723FB324649464046BE
:102D1000FEF71EFB0120A840009002208DF8040061
:102D200000208DF8060001208DF8070000208DF8A6
:102D3000050069463846FEF7C3FA012000FA09F09B
:102D4000009002208DF8040000208DF8060001207C
:102D50008DF8070000208DF8050069464046FEF713
:102D6000AFFABDE8FC8700000010014000440040BD
:102D700000480040F8B504460D4616461F468DF83B
:102D800000408DF801508DF802608DF803706846A0
:102D900000F05EF8F8BD00007FB504460D4616460B
:102DA0002348844203D10121102000F0FBF921487F
:102DB000844203D10121480400F0E4F91E48844212
:102DC00003D10121880400F0DDF91C48844203D1BD
:102DD0000121C80400F0D6F91948844203D1012129
:102DE000080500F0CFF91748844203D101212020C3
:102DF00000F0D8F94EB14FF40050ADF80600C01005
:102E0000ADF808001048009005E00020ADF806007D
:102E1000ADF8080000950020ADF80400ADF80C00F6
:102E20000C20ADF80A006946204601F051FE7FBD36
:102E3000001001400044004000480040004C0040A9
:102E40000050004000140140A086010070470000BF
:102E500070B5002100230F22C4781CB3174C2468DE
:102E600004F4E064C4F5E064C4F30721C1F1040490
:102E7000E3B20A4144789C40E1B284781440214393
:102E80000C07210E0E4C05786155047804F01F05DF
:102E90000124AC4005786D11AD0005F1E025C5F8C1
:102EA000004109E0047804F01F050124AC40054D01
:102EB0000678761145F8264070BD00000CED00E064
:102EC00000E400E080E100E002490143024A1160B1
:102ED000704700000000FA050CED00E02DE9F04F0E
:102EE00085B082468B4617461D46DDE90E89082DC2
:102EF00000DD0825A84500DDA846A94501DD4FF005
:102F00000009E81E052824D2DFE800F0030A1117A3
:102F10001D004FF47A70B7FBF0F100FB11771AE057
:102F200042F21070B7FBF0F100FB117713E0494853
:102F3000B7FBF0F100FB11770DE04748B7FBF0F16C
:102F400000FB117707E04548B7FBF0F100FB117774
:102F500001E0434F00BF00BF3B4642A2691C02A8EC
:102F600001F054FF02A8FDF751F9C6B2AE4216DADD
:102F7000002407E0301B02A9085C291B02AA505458
:102F8000601CC4B2701C8442F4DB002404E02020E6
:102F900002A90855601CC4B2A81BA042F7DCB8F116
:102FA000000F23DD02A8FDF731F9C6B2002408E0C6
:102FB000301B02A9095C301B401C02AA1154601C82
:102FC000C4B208F101008442F2DB2E20A6EB080116
:102FD00002AA5054A6EB0800401E02A9085C202853
:102FE00004D13021A6EB0800401E1154002400201B
:102FF0008DF80500681CC5B2C14503DD09F101006B
:1030000000F0FF091FE002A8005D8DF80400281BF6
:1030100048450BD11398102101FB04A1009088B200
:1030200001AA5946129BFEF7D7FB0AE0119810211E
:1030300001FB04A1009088B201AA5946109BFEF73B
:10304000CBFB601CC4B202A8005D0028DBD105B038
:10305000BDE8F08FA086010040420F0080969800E6
:10306000FFE0F505256400007047FF218171C17103
:103070007047000030B10D49097821F002010B4A78
:10308000117006E00949097821F00201891C074AFC
:103090001170074909880A2291FBF2F1034A517025
:1030A000114609884FF0C04211807047540000203B
:1030B0005000002001468A680869801A704701465E
:1030C000886870470346022A01D3501C08B90020C3
:1030D00070470020186058609860D9601A6101201C
:1030E000F6E70246906890B11368D068C05C08703B
:1030F0001068401C10609068401E90601069401E6F
:103100001368834201D9002010600120704700201D
:10311000FCE7024613699068984201D1002070478D
:103120005368D068C1549068401C90605068401C3F
:1031300050601069401E5368834201D900205060DE
:103140000120ECE729B1064A12680243044B1A60D9
:1031500004E0034A12688243014B1A607047000082
:103160003038024029B1064A12680243044B1A6003
:1031700004E0034A12688243014B1A607047000062
:103180003838024029B1064A12680243044B1A60DB
:1031900004E0034A12688243014B1A607047000042
:1031A0004038024029B1064A12680243044B1A60B3
:1031B00004E0034A12688243014B1A607047000022
:1031C00044380240F0B500210022002402250026E8
:1031D0000223324F3F6807F00C0121B1042905D0CA
:1031E000082937D105E02E4F076036E02D4F0760E4
:1031F00033E02A4F3F1F3F68C7F38056274F3F1FDA
:103200003F6807F03F036EB1264FB7FBF3F7DFF8D7
:103210008CC0ACF1040CDCF800C0CCF3881C07FBBC
:103220000CF40CE01E4FB7FBF3F7DFF870C0ACF105
:10323000040CDCF800C0CCF3881C07FB0CF4174F1F
:103240003F1F3F68C7F301477F1C7D00B4FBF5F7C4
:10325000076002E0124F076000BF00BF0F4F3F68DA
:1032600007F0F0010909104F7A5C0768D740476002
:103270000A4F3F6807F4E051890A0B4F7A5C4768B0
:10328000D7408760054F3F6807F46041490B064F00
:103290007A5C4768D740C760F0BD0000083802403C
:1032A0000024F40040787D016E00002002460020DA
:1032B000044B186820F0EC6042EA01031843014B0C
:1032C000186070470838024002460020044B186816
:1032D00020F0784042EA01031843014B1860704720
:1032E0000838024030B50120124BDB89002B1FDD6E
:1032F000104BDB89B3F57E7F1ADC012113E00D4B07
:103300009C891D46CB1D35F81330E21849F6404321
:103310009A4202D3084B9A4204D90020054B1B88DD
:1033200003F10A01491C034BDB898B42E7DC00E017
:10333000002030BD84350020C0D401002DE9FC47B9
:1033400005464FF6FF7C4FF000084FF00109680278
:103350002F4951F8200000906802401C51F82000CD
:10336000019000220CE01DF80200202803DB1DF86C
:1033700002007E2802DD4FF000096422501C82B258
:10338000062AF0DBB9F1000F2BD06802C01C2049DF
:1033900001EB80073E887C88012C05DAB4F57E7F3E
:1033A00002DD4FF000091CE0002218E0381D30F863
:1033B0001230434500DD9846634500DA9C46981973
:1033C00049F64041884203DB98191249884204DDDE
:1033D0004FF0000904F10A0082B2501C82B2A242EE
:1033E000E4DBB9F1000F10D00B4804800B480680D5
:1033F0000B48A0F800C00B48A0F8008000208DF812
:103400000700DDE90001BDE8FC8700200146FAE77E
:1034100084150020C0D401001000002012000020FC
:10342000140000201600002010B50346002005E01F
:1034300053F8204042F82040441CA0B28842F7DBF9
:1034400010BD00002DE9F05F04460D4617464FF011
:10345000090A0026B046B4F1006F02D304F003005D
:1034600008B1BDE8F09FFDF7F7FCF320FDF73CFC49
:103470000020FDF73FFC264604EB07083046FDF729
:103480008FFF83464046FDF78BFF81460F488642FB
:1034900004D202215846FDF73FFC8246BAF1090FDB
:1034A0000CD108E020462968FDF7AEFC092800D0C1
:1034B00003E0241D2D1D4445F4D300BF0120FDF77A
:1034C00019FCFDF797FC00BFCBE700000000FF1FD1
:1034D0007047000010B502460021FF200EE00A4BA5
:1034E0005B5C1478A34207D1074C4B1CE35C547817
:1034F000A34201D1481005E08B1CD9B2024B5B5CA2
:103500007F2BECDC00BF10BDFA5700080CB5002083
:10351000019000903448006840F4803032490860DF
:1035200000BF3148006800F4003000900198401C52
:103530000190009818B90198B0F5A04FF1D12A4830
:10354000006800F4003010B10120009001E000207C
:1035500000900098012846D123484030006840F090
:1035600080502149403108602048006840F44040C4
:103570001E4908601C48083000681B490831086073
:103580000846006840F4004008600846006840F4BF
:10359000A05008601648091F0860081F006840F026
:1035A0008070091F086000BF0F48006800F00070BD
:1035B0000028F9D040F205700E4908600A4808302A
:1035C000006820F0030008490831086008460068D8
:1035D00040F00200086000BF03480830006800F0B7
:1035E0000C000828F8D10CBD0038024000700040E3
:1035F00019544007003C0240042808D14FF0E02154
:10360000096941F004014FF0E022116107E04FF039
:10361000E021096921F004014FF0E02211617047B7
:1036200010B500F031F910BD10B51548006840F430
:103630007000134908601348006840F00100114908
:10364000086000200F49083108600E4800680E49E4
:1036500008400C4908600D48091D0860081F0068F3
:1036600020F48020091F0860002006490C31086002
:10367000FFF74CFF4FF0006001498039086010BD32
:1036800088ED00E000380240FFFFF6FE1030002415
:1036900010B50121880700F09AF8012812D10C48D2
:1036A0000068401C0A49086008460068012809D1E2
:1036B000FFF7E0FC00200649086000214FF0804041
:1036C00000F079F80121880700F072F810BD0000C1
:1036D000380000207FB505460C4601210846FFF75B
:1036E00051FD0295ADF804400020ADF80600ADF89C
:1036F0000C0001A94FF0804000F084F8012211462F
:10370000900700F075F800214FF0804000F053F86A
:103710001C208DF8000000208DF801008DF80200BB
:1037200001208DF803006846FFF792FB7FBD000083
:1037300010B50121054800F04AF8012805D10449D7
:1037400008700121014800F033F810BD000400406A
:10375000070000207FB505460C4601210220FFF737
:1037600011FD0295A0B2ADF804000020ADF80600EE
:10377000ADF80C0001A90D4800F044F801221146F3
:103780000A4800F035F80121084800F014F81D201F
:103790008DF8000001208DF801008DF802008DF8F1
:1037A00003006846FFF754FB7FBD000000040040A3
:1037B000CA430282704721B1028842F001020280AE
:1037C00004E002884FF6FE731A400280704730B55D
:1037D0000246002000230024158A05EA010395898A
:1037E00005EA010413B10CB1012000E0002030BD56
:1037F0001AB183890B43838102E083898B438381E0
:103800007047000000220288184B98420ED0184BD7
:1038100098420BD0B0F1804F08D0164B984205D09B
:10382000154B984202D0154B984204D14FF68F7336
:103830001A404B881A43124B984207D0114B9842BA
:1038400004D04FF6FF431A400B891A4302804B689D
:10385000C3620B880385054B984202D0044B984203
:1038600001D18B7A038601238382704700000140D7
:10387000000401400004004000080040000C00402B
:1038800000100040001400400448006820B10348C4
:103890000068401E014908607047000000000020D9
:1038A00010B540F22441044801F0C2F810B10248BA
:1038B000FDF734F910BD0000004C004010B540F297
:1038C0002441044801F0B4F810B10248FDF726F98C
:1038D00010BD00000050004070B504460D460020A9
:1038E0000B49C87408460179133000F0BFFEAE21C1
:1038F0000748133000F0BAFE29460548133000F09F
:10390000B5FE03491331204600F01EFE70BD0000D5
:10391000900000202DE9FF4107460C460020029050
:1039200003900090019025786678A0788DF80800C3
:10393000E0788DF8090020798DF80A00E0798DF89B
:103940000000207A8DF80100607A8DF802000020D6
:10395000C949C87408460179133000F087FE28462B
:10396000902D7DD00ADCA0F180000A2879D2DFE812
:1039700000F0142E486283787878789DA42871D05E
:1039800006DC91286FD0A2286ED0A32869D12FE140
:10399000AE286AD0C128F9D1D9E02946B6481330FB
:1039A00000F064FE0021B448133000F05FFE3146A1
:1039B000B148133000F05AFE0021AF48133000F038
:1039C00055FE0021AC48133000F050FE45E1294679
:1039D000A948133000F04AFE0021A748133000F038
:1039E00045FE3146A448133000F040FE0021A248B5
:1039F000133000F03BFE00219F48133000F036FEEC
:103A00002BE129469C48133000F030FE00219A48F3
:103A1000133000F02BFE31469748133000F026FE9D
:103A200000219548133000F021FE00219248133008
:103A300000F01CFE11E129468F48133000F016FEFD
:103A400000218D48133000F011FE31468A481330B2
:103A500000F00CFE00218848133000F007FE05E05E
:103A60003EE0F9E0DEE055E08EE0A7E0002182488C
:103A7000133000F0FBFDF0E029467F48133000F0E2
:103A8000F5FD00217C48133000F0F0FD31467A4806
:103A9000133000F0EBFD00217748133000F0E6FD15
:103AA00000217548133000F0E1FDD6E02946724848
:103AB000133000F0DBFD00216F48133000F0D6FD1D
:103AC00031466D48133000F0D1FD00216A481330B3
:103AD00000F0CCFD00216848133000F0C7FDBCE0C9
:103AE00029466548133000F0C1FD002162481330BB
:103AF00000F0BCFD31466048133000F0B7FD0021F6
:103B00005D48133000F0B2FD00215B48133000F037
:103B1000ADFDA2E029465848133000F0A7FD9DF8FE
:103B200008105548133000F0A1FD9DF809105248C7
:103B3000133000F09BFD9DF80A104F48133000F041
:103B400095FD00214C48133000F090FD85E029469A
:103B50004948133000F08AFD9DF8001046481330A4
:103B600000F084FD9DF801104348133000F07EFD05
:103B70009DF802104048133000F078FD00213E48C7
:103B8000133000F073FD68E029463B48133000F025
:103B90006DFD00213848133000F068FD00213648E3
:103BA000133000F063FD00213348133000F05EFD58
:103BB00000213148133000F059FD4EE029462E48CF
:103BC000133000F053FD00212B48133000F04EFD60
:103BD00000212948133000F049FD00212648133008
:103BE00000F044FD00212448133000F03FFD34E094
:103BF00029462148133000F039FD00211E481330BA
:103C000000F034FD00211C48133000F02FFD00218E
:103C10001948133000F02AFD00211748133000F036
:103C200025FD1AE029461448133000F01FFD00213D
:103C30001148133000F01AFD00210F48133000F036
:103C400015FD00210C48133000F010FD00210A483A
:103C5000133000F00BFD00E000BF00BF0649133138
:103C6000064800F071FC04480079401CC1B20248CB
:103C70000171BDE8FF8100009000002000100140AC
:103C800010B5044600202449C87408460179133051
:103C900000F0ECFC214801781F48133000F0E6FCEE
:103CA0001E480078802815D100211B48133000F0F1
:103CB000DDFC1B4801781848133000F0D7FC0021C8
:103CC0001548133000F0D2FC00211348133000F0E7
:103CD000CDFC14E000211048133000F0C7FC104860
:103CE00001780D48133000F0C1FC00210A48133060
:103CF00000F0BCFC00210848133000F0B7FC064976
:103D00001331084800F020FC03480079401CC1B280
:103D10000148017110BD0000900000202E0000201D
:103D20002D0000200010014070B504460D46002013
:103D30001349C87408460179133000F097FCA0219C
:103D40000F48133000F092FC00210D48133000F0B2
:103D50008DFC00210A48133000F088FC002108483F
:103D6000133000F083FC06491331064800F0ECFBE9
:103D700003480079401CC1B20148017170BD0000C8
:103D800090000020001001400B49C9780A2906DD87
:103D90000021094AD1701170517091700BE00649F1
:103DA000C978491C044AD1701146CA78C91C885484
:103DB0000021014A51707047900000202DE9F84F12
:103DC0004FF00008C1460024002600200090FE4865
:103DD000C078022876DD012407E0FB48C01C005DA6
:103DE000484400F0FF09601C84B2F748C078A04244
:103DF000F3DCF548C178C01C405C484563D1F2480B
:103E00004079432801DB012000E00020EE49497998
:103E1000592901DC012100E000210840A8B1EB484C
:103E20000288E949C91CEA48FCF7CCF9EA20E849CC
:103E30000870ED21E5480088401EE54A1154E3482A
:103E40000188E448FCF706FF34E0DF484079A32806
:103E500001DB012000E00020DB494979B02901DCC9
:103E6000012100E00021084020B3D74840792030EC
:103E7000C1B2D5484171D8480088801ED249C91CBA
:103E8000085C2030C2B2D4480088801E0A54D24850
:103E90000288D248FCF796F9EA20D0490870ED2153
:103EA000CD480088401ECD4A1154CB480188CC48EB
:103EB000FCF7D0FEC4484079102872D00BDC0A28E9
:103EC00070D201E0EEE2EBE2DFE800F018233745C4
:103ED000536C616D7C8723286FD008DC11286DD06E
:103EE00020286CD021286BD022285BD1A5E1242882
:103EF00067D0412870D04228F7D1ABE2B248C078F1
:103F0000032805D18020B7490870B548FFF702FDA6
:103F1000C2E2AD48C07803280ED18120B1490870B3
:103F2000AF48FFF7F7FCA8480079401CC1B2A6488B
:103F300001710020FDF7B4FEAEE2A348C07803286B
:103F400008D18220A7490870A548FFF7E3FC0120AB
:103F5000FDF7A6FEA0E29C48C078032808D1832084
:103F6000A04908709E48FFF7D5FC0020FCF7A0FB95
:103F700092E29548C078032808D1842099490870B6
:103F80009748FFF7C7FC0120FCF792FB84E28E48BC
:103F9000C078032804D19248FFF772FEFEF784FA36
:103FA0007AE224E077E28848C078032804D18C487C
:103FB000FFF766FEFDF7FEFF6EE25EE138E08DE0A2
:103FC000CEE0ABE18048C078032804D18448FFF7F5
:103FD00057FEFEF7BDF85FE2D6E17B48C0780328C4
:103FE00004D17F48FFF74CFEFDF7A2FE54E276486D
:103FF000C07805281BD100217B4A116051607248AE
:10400000C079114608707048807948700846008869
:10401000764908800020FFF72DF801218807FFF777
:10402000CAFB90206F4908706D48FFF773FC33E2BC
:104030006548C078062850D100206B4A1060506057
:104040006148007A114608705F48C07948705E4840
:10405000807988700846006865490860654800787E
:1040600010B10020634908706348007800F0010037
:1040700010B10020FDF714FE00255348807901049B
:104080005148C07941EA00204F49097A40EA0105C8
:104090004D488079534988704B48C1795148C17067
:1040A0004948017A4F4801715448C079FF280DD121
:1040B0005348854205D90120524908700846456099
:1040C00004E001204F4908700846456091204549A9
:1040D00008704348FFF71EFC00BFDDE13A48C07896
:1040E00007283CD10021404A116051603648C07910
:1040F0001146087034488079487008460088424963
:10410000C8813148407A114608702F48007A4870BB
:10411000084600883C49888100203C4908803C4989
:1041200008703948C08900280BDD3748C089B0F5D0
:104130007E7F06DC3448C08901B22948FFF7F4FDD0
:104140000DE03148C089B0F57E7F02DC2E48C08981
:1041500028B9AE20234908702148FFF7DBFB9BE11B
:104160001948C078072867D100211F4A11605160A3
:10417000154890F80680C0791146087008F00F00C5
:104180004870084606881048407A08700E48007A41
:1041900048704FEA18108870084600881A498989C3
:1041A000401A81B2184AF01D22F8101017480088F2
:1041B000401C864234D10C480068164988422FD8EA
:1041C0000948006828E000009000002060000020FE
:1041D00024480020004800406800002024460020B9
:1041E00000100140043E0020480000205000002044
:1041F0001C00002052000020540000200800002075
:104200009F860100103E0020843500205A000020C7
:104210005C000020C0D4010049F64041884209D228
:10422000A1480078401CA0490870A0480178A04827
:10423000FFF752FB9D4806802EE19B480078B0B9FD
:10424000FFF750F860B1A2209A4908709848FFF72C
:1042500061FB0120FDF724FD0120974908700BE068
:10426000AE20944908709248FFF754FB04E08E4852
:1042700001788F48FFF730FB0EE19048C0780B289B
:104280004BD18E488579002D46DD052D44DA00217D
:104290008B4A11605160C079114608708748007AD6
:1042A00048708648407A88708448807AC87083480D
:1042B000C07A08718148007B48718048407B8871D2
:1042C000002407E07E4830F814007E4921F81400ED
:1042D000601C84B2042CF5DB7A48009000240CE0CA
:1042E000009850F82410681E4FF4007202FB004042
:1042F000754A42F82010601C84B2B4F5007FEFDBF1
:104300004FF4005270497148FFF79CF8A3206949A7
:1043100008706748FFF7FEFA00BFBDE06748C07845
:10432000042830D165488579002D2BDD052D29DA4B
:10433000002405E00020634921F81400601C84B2C9
:10434000082CF7DB5F48009000240CE0009850F840
:104350002410681E4FF4007202FB00405A4A42F8D3
:104360002010601C84B2B4F5007FEFDB4FF40052E4
:1043700055495648FFF766F8A4204E4908704C4846
:10438000FFF7C8FA00BF87E04C48C078072860D123
:1043900000204A49C874012706E04848C01CC15D96
:1043A000103000F063F97F1C072FF6DB434913310F
:1043B000474800F0C9F841480079401CC1B23F4865
:1043C000017100203D49C874C1203A4908703B483A
:1043D000007AC8713948417A364801723748007E00
:1043E0003449C8713548417E32480172014630482F
:1043F000FFF790FA3149374800F0E7FD0025AA465B
:10440000AB46344840783349097840EA0125B5F590
:104410007A7F08DB4FF0030A4FF0010B0A2095FB6F
:10442000F0F085B207E04FF0030A4FF0010B0A20CD
:1044300095FBF0F085B227488079FF2808D101204C
:1044400025498872084680F80BA080F80CB00561F9
:1044500000BF21E01948C07804281BD1002017496B
:10446000C874012506E01548C01C415D103000F0FD
:10447000FDF86D1C042DF6DB10491331144800F0D3
:1044800063F80E480079401CC1B20C48017100204D
:104490000A49C87400E000BF00BF0020BDE8F88FE3
:1044A0000120FBE70220F9E75C0000205A00002011
:1044B00000100140043E0020520000209000002027
:1044C00048000020843500208415002000000A08E0
:1044D0000048004008000020103E002010B50446AF
:1044E00018480078012827D11648407801280FD1B4
:1044F000EA2C03D0EB2C01D0ED2C03D12046FFF7A2
:1045000043FC1DE000200F4908704870C87017E098
:10451000EB2C03D101200B49487011E0ED2C02D1A6
:10452000FCF7B0FF0CE0EA2C02D1FCF7BBFF07E080
:104530002046FCF7BFFF03E0EA2C01D1FCF7B2FFF5
:1045400010BD0000900000202DE9F04180460C468F
:104550000027002500262078002878DD207809280B
:1045600075DA80213B48FBF746FE00203A49087087
:10457000EA203849087000BF01203749087000BFA1
:104580001CE0781C265CA819C5B2EA2E03D0EB2EDD
:1045900001D0ED2E08D1EB212F4802780078401C85
:1045A0002D4B18702B4881542B4801780078401C03
:1045B000294A107027484654781CC7B22078B84260
:1045C000DFDCEA2D03D0EB2D01D0ED2D08D1EB215E
:1045D000214802780078401C1F4B18701D488154F8
:1045E0001D4801780078401C1B4A1070194845543A
:1045F000ED21104602780078401C174B18701548C2
:1046000081541648804511D181151548FBF7F3FDFB
:1046100011480278921C0F491148FBF7D3FD0E4850
:104620000178891C0D48FCF715FB10E04FF48071F0
:104630000C48FBF7E0FD08480278921C0549094840
:10464000FBF7C0FD044801780748FCF703FBBDE811
:10465000F0810000843D00202C000020001001406B
:1046600024460020244800200048004002780A2AFE
:1046700002DD0022027004E00278521C027002780F
:104680008154704710B5002005490870012048701A
:1046900008464078887000F005F8FEF75BFA10BD18
:1046A0005600002010B51F20FCF729FFFEF7C6FAC0
:1046B0000120FDF7B5FF0120FDF7E4FF0120FEF723
:1046C00021F80120FEF75EF80120FEF783F80120B3
:1046D000FEF7A8F8FEF72CFA0448007810B1002085
:1046E0000249087000200249087010BD52000020E5
:1046F0004000002008B51F20FCF701FFFEF79EFADE
:104700000120FDF78DFFFEF7B5F81F204FF6FF7370
:1047100005A2782100909020FDF75EF8FEF708FAD8
:1047200001200249087008BD6D73000040000020A0
:1047300010B51F20FCF7E3FEFEF780FA0120FDF71D
:10474000A1FF01210846FEF7B7F802210120FEF77C
:10475000B3F803210120FEF7AFF804210120FEF792
:10476000ABF8FEF7E5F902200149087010BD000022
:104770004000002008B51F20FCF7C1FEFEF75EFADE
:104780000120FDF7BFFF1F204FF6FF7313A2782112
:1047900000901020FDF720F81F204FF6FF7311A2A4
:1047A0009C2100903020FDF717F81F204FF6FF7373
:1047B0000FA2C82100901020FDF70EF81F204FF621
:1047C000FF730EA2EC2100903020FDF705F8FEF7F4
:1047D000AFF903200C49087008BD00003129BBF96E
:1047E000C6B5000035302E303030206D730000002B
:1047F0003229BCE4B8F4B5F7D6C600003130303108
:1048000031303131000000004000002008B51F2089
:10481000FCF775FEFEF712FA0120FDF7B3FF1F202B
:104820004FF6FF7306A2782100901020FCF7D4FF0A
:10483000FEF75CF9FEF77CF904200449087008BD16
:10484000CBA5BCF53A202020206442004000002087
:104850001FB51C4B1CA20A2101A800F0D7FA1F208B
:10486000FCF74DFEFEF7EAF90120FDF7B3FF1F202C
:104870004FF6FF7315A2782100903020FCF7ACFFB3
:104880001F204FF6FF7313A29C2100903020FCF7ED
:10489000A3FF1F204FF6FF7310A2C021009030200D
:1048A000FCF79AFF1F204FF6FF730EA2E421009041
:1048B0003020FCF791FFFEF73BF905200B4908700B
:1048C0001FBD000040E201002564000020343020BC
:1048D0006D730000203630206D73000020383020CA
:1048E0006D730000313030206D73000040000020F7
:1048F00008B51F20FCF703FEFEF7A0F90120FDF725
:1049000091FF1F204FF6FF7310A278210090002026
:10491000FCF762FF1F204FF6FF7310A2A821009042
:104920000020FCF759FF1F204FF6FF730FA2D8217C
:1049300000900020FCF750FF1048FEF796FBFEF7B2
:10494000F7F806200E49087008BD0000BDD3CADC88
:10495000C9CFCEBBBBFABFD8D6C60000CBA5BCF52D
:104960003A2020202020202000000000D6DCC6DADB
:104970003A202020202020200000000008000020F5
:104980004000002010B540F22441044800F050F8E7
:1049900010B10248FCF7C2F810BD00000010014041
:1049A00010B540F22441044800F042F810B102482A
:1049B000FCF7B4F810BD00000044004010B540F210
:1049C0002441044800F034F810B10248FCF7A6F87E
:1049D00010BD00000048004010B540F224410448DA
:1049E00000F026F810B10248FCF798F810BD00005E
:1049F0000014014001F40072B2F5007F00D100BF45
:104A0000CA430280704721B1828942F400528281F8
:104A100004E082894DF6FF731A40828170471AB113
:104A2000838A0B43838202E0838A8B4383827047AD
:104A300070B50246002400230025002040F66A16C7
:104A4000B14200D100BFC1F3421501F01F0301269E
:104A500006FA03F3012D02D19689334006E0022DB8
:104A600002D1168A334001E0968A33400C120126A7
:104A700006FA04F41688344013B10CB1012000E0AA
:104A8000002070BDF0B5034600240026002500205C
:104A900040F66A17B94200D100BF1846C1F342146C
:104AA00001F01F06012707FA06F5012C01D10C3091
:104AB00004E0022C01D1103000E014301AB1076874
:104AC0002F43076002E00768AF430760F0BD0000B6
:104AD0002DE9FF4705460E460024A14600BFA0462B
:104AE000B08900B100BF2C8A24F44054F0880443FC
:104AF0002C82AC8941F20C608443B0883189084330
:104B0000718908430443AC81AC8A24F44074B089B1
:104B10000443AC826846FEF755FB2048854202D02C
:104B20001F48854202D1DDF80C9001E0DDF80890C5
:104B3000A88900F4004040B109EBC90000EB09105E
:104B400031684900B0FBF1F707E009EBC90000EB61
:104B5000091031688900B0FBF1F76420B7FBF0F071
:104B600004012009642101FB1078A88900F40040A9
:104B700040B1322000EBC800B0FBF1F000F00700BC
:104B8000044308E0322000EB08106421B0FBF1F090
:104B900000F00F0004432C81BDE8FF8700100140A6
:104BA000001401402DE9F04F85B004460F4615462C
:104BB0001E46DDE910ABDDE90E8900200490524667
:104BC00039462046FEF7E8F8434632462946204655
:104BD000CDF80090FEF77CF84848844215D10020BB
:104BE00047490988474BCDE90030231D5A06CDE9D6
:104BF000021045495011FEF735F801230022092122
:104C00003A20FEF7B7F8252004904048844215D199
:104C100000203F4909883F4BCDE90030231D5A064B
:104C2000CDE902103C499011FEF71CF80123002247
:104C30000C210846FEF79EF8272004902F48844256
:104C40001BD10020354909884022354BCDE900327F
:104C5000CDE90210231D52052B4978315011FEF782
:104C600001F8012300220A214620FEF783F80122E1
:104C7000102125487830FBF707FF244884421BD1D8
:104C80000020284909884022274BCDE90032CDE990
:104C90000210231D5205204930319011FDF7E2FF2B
:104CA000012300220D210E20FEF764F801221021BD
:104CB00019483030FBF7E8FE012280212046FFF73B
:104CC000AEFE012240F224412046FFF7DBFE012226
:104CD00040212046FFF7A3FE01235946129A04986B
:104CE000FEF748F801212046FFF78DFE20200B49F2
:104CF00008800C49088005B0BDE8F08F0010014025
:104D00005E000020243E0020406402400048004035
:104D10006600002024470020286002406200002036
:104D2000244600206A0000202448002000BFFEE73F
:104D30001CB501210846FEF705FA4FF4807000907B
:104D400003208DF8050002208DF8040000208DF866
:104D5000060001208DF8070069462848FCF7B0FAE4
:104D600000214FF48000FEF7A1FA01210420FEF794
:104D7000E9F94FF40070009003208DF8050002203F
:104D80008DF8040000208DF8060001208DF8070042
:104D900069461B48FCF794FA4FF040510020FEF79B
:104DA00093FA01210220FEF7CDF9032000900120A3
:104DB0008DF8040000208DF8060001208DF8070012
:104DC00000208DF8050069460E48FCF779FA0121AC
:104DD0001020FEF7B7F94C20009001208DF8040058
:104DE00000208DF8060001208DF8070000208DF8C6
:104DF000050069460448FCF763FA1CBD0000024048
:104E00000008024000040240001002400FB47CB5CC
:104E10000C0009AD01D0611E00E00021CDE90001C8
:104E2000064B6A462946089800F01AF8002C02D072
:104E3000009A002111707CBC5DF814FBB54F00088E
:104E400002E008C8121F08C1002AFAD17047704753
:104E5000002001E001C1121F002AFBD170470000B1
:104E60002DE9FF4F89B09B460446002506E0252822
:104E70000BD05A460B999047641C6D1C2078002873
:104E8000F5D10DB02846BDE8F08F0027B8460122C5
:104E9000474900E0074314F8013F203B02FA03F0C2
:104EA0000842F7D120782E2819D114F8010F47F0C5
:104EB00004072A280ED06FF02F022078A0F13001CD
:104EC00009290CD808EB880102EB410100EB01082D
:104ED000641CF2E70A98641C50F8048B0A9020784E
:104EE0000028CED0642808D0692806D075281ED0A6
:104EF0005A460B9990476D1C58E00A994FF00A09E1
:104F000001C90A91002802DA40422D2102E0390548
:104F100004D52B218DF82010012103E0F90704D0DE
:104F20002021F7E78A4608AE0DE00021FAE70A994A
:104F30004FF00A0901C90A91F7E74946FBF7C8FA99
:104F4000303106F8011D0028F7D1ADEB060000F165
:104F50002009780701D44FF00108C84502DDA8EB0D
:104F6000090000E000208046002706E008A85A4615
:104F7000C05D0B9990476D1C7F1C5745F6DB04E024
:104F800030205A460B9990476D1CB8F10001A8F1EA
:104F90000108F5DC05E016F8010B5A460B9990471D
:104FA0006D1CB9F10001A9F10109F4DC641C65E78D
:104FB000092801004A68002A06D00A68531C0B60C1
:104FC00010704868401E4860704710B500224C7A47
:104FD0000B7A44EA032241F64C539A4203DC0B7AE3
:104FE00003704B7A437010BD1CB501210220FEF7FF
:104FF000A9F801208DF804008DF8060000208DF836
:10500000070003208DF805004FF4107000906946EA
:105010000248FCF755F900F03BF91CBD00040240C2
:1050200010B504466FF00400FEF7E6FAE11704EB52
:105030005171C1F3C701074A11701046007800EBA7
:105040004001C1EBC0104FF6FF7101EAC0000249F8
:10505000088010BD320000203400002070B50446E6
:105060004FF4077094FBF0F0C6B24FF4077094FB56
:10507000F0F100FB114085B205E04FF4077000F03D
:1050800009F8701EC6B2002EF7D115B1284600F0FF
:1050900001F870BD0146114A12884A434FF0E023DF
:1050A0005A6100229A611A46126942F001021A619D
:1050B00000BF4FF0E022106900F001021AB100F4C5
:1050C0008032002AF5D04FF0E022126922F001026E
:1050D0004FF0E0231A6100229A61704734000020EB
:1050E0002DE9F04106460F46154600F0B7F890202E
:1050F00000F088F800F0DEF800B125E0F8B200F02A
:1051000081F800F0D7F800B11EE000F0A7F8912078
:1051100000F078F800F0CEF800B115E000240CE0C3
:1051200000F04EF83055681EA04202D000F010F892
:1051300001E000F02FF8601C84B2AC42F0DB00F01C
:10514000A7F80120BDE8F08100F0A2F80020F9E7FF
:1051500010B54FF400700A49088000F013F84020A1
:105160000749891E088000F00DF840200449088096
:1051700000F008F84FF400700149891E088010BD46
:105180001A040240002001E0411CC8B21E28FBDBCB
:105190007047000010B54FF4007008490880FFF711
:1051A000F1FF402005490880FFF7ECFF402003494C
:1051B000891C0880FFF7E6FF10BD000018040240BC
:1051C00070B50024002516E06006040E40200C494E
:1051D0000880FFF7D7FF0A480838006800F400701D
:1051E00008B1601CC4B240200549891C0880FFF743
:1051F000C9FF681CC5B2082DE6DB204670BD000063
:105200001804024070B50446002522E004F0800036
:1052100020B14FF400701049088004E04FF4007092
:105220000D49891C0880FFF7ADFF40200A4908801E
:10523000FFF7A8FF40200849891C0880072D02D1EC
:10524000C000891E08806006040EFFF79BFF681CE3
:10525000C5B2082DDADB70BD1804024010B54FF45A
:1052600000700A49088040200880FFF78BFF4FF448
:1052700000700649891C0880FFF784FF402003491D
:10528000891C0880FFF77EFF10BD00001804024053
:1052900010B54FF40070064908804020891E088030
:1052A000FFF770FF4FF400700149891E088010BDA0
:1052B0001A04024010B54FF400700D490880FFF742
:1052C00061FF40200A490880FFF75CFF0848083862
:1052D000006800F4007008B1012400E000244020C0
:1052E0000349891C0880FFF74DFF204610BD0000D0
:1052F000180402402DED048B8CB000244FF4A06004
:10530000FDF7E2FDFEF790F9FD48FDF75BFFFC4875
:1053100040686422B0FBF2F1481EB0F1807F00D3F8
:105320001BE0481E4FF0E022506150170F2200286A
:1053300007DA13071F0EF34B00F00F06361F9F55B9
:1053400003E013071E0EF04B1E5400BF00204FF069
:10535000E02290610720106100BF0520FBF7B8FC38
:105360004AF20F410120FEF7B5F9E84942F20F7009
:10537000FEF7F0F9FBF7C6FEFFF7DAFCA820FFF70F
:105380004FFEFCF7E5F84FF0C040008AC0B20A902B
:10539000BDF8280009900020DD490880DD4A4FF45F
:1053A0000061DD48FEF740F8DC4D002406E0D948F6
:1053B00050F8240045F82400601C84B2642CF6DD0B
:1053C000FFF760F9FFF710FE9FEDD58B4FF4807269
:1053D000D549D648FDF776FE4FF48072D449D548BA
:1053E000FDF770FE4FF48072D349D448FDF76AFE92
:1053F0004FF48072D249D348FDF764FE00200821A3
:105400000A23CDE90130CDE90310CF480923024634
:105410004FF4E1310090CD48FFF7C4FB0020042198
:105420000B23CDE90130CDE90310C9480A23024618
:105430004FF4E1310090C748FFF7B4FBCCE14FF0E7
:10544000C040008AADF818009DF818000A909DF839
:10545000190008909DF82800C00918B90020BE491D
:10546000087002E00120BC490870BB48007840B9D0
:10547000BA48007828B9FFF705F90120B749087044
:105480000CE0B5480078012808D1B448007801281C
:1054900004D1FFF7F7F80020B0490870BDF82800E4
:1054A000BDF82410884279D09DF82800C0F3001080
:1054B00070B19DF82400C0F3001048B99DF8280091
:1054C000C0F3401010B1FCF775FD01E0FCF7ECFFF4
:1054D0009DF82800C0F3C00030B99DF82400C0F347
:1054E000C00008B1FCF734FE9DF82800C0F380002E
:1054F00030B99DF82400C0F3800008B1FCF718FC17
:105500009DF82800C0F3400050B99DF82400C0F376
:10551000400028B192490978C1F34000FBF7C8F870
:105520009DF8280000F0010050B99DF8240000F01B
:10553000010028B18A49097801F00100FCF7B0FBAD
:105540008848007838B39DF82800C0F3801010B365
:105550009DF82400C0F38010E8B900266F48C08988
:10556000401E81490988884205DD7F480088401C2B
:105570007D49088002E000207B49088067488689D1
:10558000794800880830654931F8100006443046F3
:10559000FBF7A6F800BFBDF8280009904FF0C04007
:1055A000008AC0B20A906E48007800F001009DF8B1
:1055B000201001F00101884209D169480078C0F348
:1055C00040009DF82010C1F3400188421ED09DF894
:1055D00020006349097860F30001614801709DF87B
:1055E000200041085E48007861F341005C49087082
:1055F0009DF82000C0F3400020B908215B48FBF76C
:10560000CAFE03E008215948FBF7C7FE4748FDF7EB
:1056100056FD80B10020059005A94448FDF761FDC5
:10562000012807D152480078062803D19DF81400BC
:10563000FEF754FF00BF4148FDF741FD60B1002077
:10564000059005A93D48FDF74CFD012803D19DF8C3
:105650001400FEF743FF00BF4648007870B30020F7
:1056600044490870FCF7E6FAB0EE408AF0EE608A32
:105670009FED410B53EC102B51EC180BFAF7CDFDBD
:1056800041EC190BFAF7EFFE3D49487051EC180B4D
:10569000FAF702FF09EE100A4FF6FF730422B0EE8C
:1056A000490A4FF496711420FCF704FA4FF6FF7381
:1056B00034A24FF496713C20FCF74CFA3248807AC1
:1056C000E8B10020304988724FF6FF7000211F2298
:1056D000CDE90202CDE904102B48007BCDE90001A1
:1056E0002948C37AA82102695B20FDF7F7FB1F2038
:1056F0004FF6FF7325A2A8210090C42048E049E09E
:105700008000002018ED00E000E400E01F480100E8
:10571000540000208415002000000A088435002071
:105720000000000000000000B3000020341500203D
:10573000B310002048150020F31000205C15002055
:10574000F3140020701500200000024000100140FA
:105750000004024000480040050000200600002030
:105760002A000020520000202800002000100240E3
:1057700040000020070000209A9999999999D93FF3
:10578000043E002060430000103E00206442000000
:10579000FCF722F811480078F0B100200F4908709A
:1057A0004FF6FF7000211F22CDE90202CDE904105F
:1057B00008460321CDE9001008480623D821426895
:1057C0004C20FDF78BFB1F204FF6FF7304A2D8215E
:1057D0000090C420FCF700F831E60000103E0020E5
:1057E0006D73000010B50246012000E050430B1E0F
:1057F000A1F10104E1B2F9D110BDBCA4B9E2C4BF6A
:10580000B1EAC4A3C4E2C6F7BEABC8B7C6B5C2CA44
:10581000B1E0C2EBB1E4BCE4B8F4CEB1CBE6BBFA84
:10582000CAE4B3F6C4DCC1BFC9E8B6A8D0A3D7BCEC
:10583000CABDB3CCBFD8B7C2D5E6BBF9B5F7D6C69B
:10584000CBA5BCF5D2D1BEADC8A1CFFBD0DEB8C4CC
:10585000B8FCD0C2C8B7C8CFB7B5BBD8BFD5BDD3C9
:10586000CADCC9CFCEBBCDE2CDACB2BDD6DCC6DA88
:105870000000000000000000000070800110308077
:10588000013830C00170FEC701E0FEC700C007C785
:10589000000006E77F00FEE77F08FE671C1C063756
:1058A0001C3806370C70FE3F0C60FE7F0C007078D1
:1058B0000C0060680C00FF6F0C60FFEF06E038C062
:1058C000066038C00670F8C70730F88703381C87B1
:1058D00003181CC7031C0EC3071C0EE30E0EE77350
:1058E0001C8CC33D3C80031E780000083000000083
:1058F00000000000000000000000800300008001A4
:10590000000080010000800101C0800107E081816A
:1059100007C08381038083C1018087E100008FE19C
:10592000000082410000800100FCFFFF3FFCFFFF00
:105930003F00380C0000380C0000380C0000380C18
:105940000000380C0000180C00001C0C00000C0CAF
:1059500000000E0C0800070C38C0030C38F0011CC6
:105960003CFE00FC1F3C00F80F0800000000000097
:1059700000000000000000000000000000E0FFFF49
:1059800007E0FFFF07E0FFFF07E0000007E000007F
:1059900007E0000007E0000007E0000007E0FFFF6D
:1059A00007E0FFFF07E0000007E0000007E000005D
:1059B00007E0000007E0000007E0000007E0FFFF4D
:1059C00007E0FFFF07E0000007E0000007E000003D
:1059D00007E0000007E0000007E0FFFF07E0FFFF2F
:1059E00007E0FFFF07E0000007E0000007000000FD
:1059F000000000000000000000C0010000C0010025
:105A000000C0C1FF1FC0C1FF1FC0010000C00100D6
:105A100000C0010000FC1F0000FC1F0000C00100CE
:105A200000C0F1FF3FE0F1FF3FE0F5FF3FE007700E
:105A300000F00F7000F00D7000F89D7004F889738D
:105A400007DC81710ECEC1711CCEC1701CC4E17027
:105A500038C0E17038C0717070C0717010C0013012
:105A600000C0013E00C0013E00C001060000000071
:105A7000000000000000000000C0008601C0008699
:105A800001C0008601C0F0FF3FC0F0FF3FC00086AC
:105A900001C0008601FC0F0000FCCFFF0FC0C0005A
:105AA0000CE0C0000CE0C0000CE0C2FF0FF0C7002B
:105AB0000CF0CE000CF8CC000CD8DCFF0FDC003072
:105AC00000CE003000CC003800C0F0FF3FC0F0FF37
:105AD0003FC000D800C000CC01C0008E03C08007CA
